:1000000019C033C032C031C030C02FC02EC02DC087
:100010002CC02BC02AC029C028C028C026C025C09B
:1000200024C023C022C021C020C01FC01EC01DC0CC
:100030001CC01BC011241FBECFEFD4E0DEBFCDBF5C
:1000400011E0A0E0B1E0ECEBF3E002C005900D920E
:10005000A830B107D9F721E0A8E0B1E001C01D92B6
:10006000AB35B207E1F788D0A7C1CACF1F920F9274
:100070000FB60F9211242F933F934F935F938F935B
:100080009F935D9858988091010118160CF06CC0F0
:100090002E9A8091000118160CF06CC05A9A40916B
:1000A0001701509118018091190190911A01481B74
:1000B000590B509318014093170120910F01309173
:1000C00010018091110190911201281B390B30937E
:1000D000100120930F01852F881F8827881F932FD9
:1000E000991F9927991F811131C09923E9F05B9AD3
:1000F00000000000000000000000882339F02F9865
:10010000405B5F4F5093180140931701911122C03B
:10011000C90180911801881F8827881F991F992776
:10012000991F81110CC059F49F918F915F914F914C
:100130003F912F910F900FBE0F901F9018950000C8
:100140000000000000000000882379F22F9A992314
:1001500079F2CDCF5B98C901805B9F4F9C01909352
:10016000100180930F01D5CF2E98809100011816B1
:100170000CF494CF5A9893CF80E090E008D1EC0132
:1001800090930301809302015D9A2F9A2E9A5598BD
:1001900027982698589A5B9A5A9A5098539852984A
:1001A00082E08093800089E1809381008FEF9FE05F
:1001B000909387008093860081E080936F0082E0B7
:1001C00090E0DDD08093BA0084E48093BC00CE013F
:1001D0001C161D0614F480E090E0D195C195D1095C
:1001E0008C179D070CF4CE01F89497FDC4C021E054
:1001F000209301012093000197FF03C09195819501
:1002000091098093190190931A01809311019093A1
:10021000120178947894A4ECC4E0B5E0A89580919C
:10022000BC0087FFFBCF8091B900869586958695A7
:10023000843121F148F48C3009F484C0803109F410
:100240006FC0A093BC00EACF853161F08731C9F758
:1002500080910A0190910901891738F090E09093FC
:10026000BB00EFCFC093090180E0E82FF0E0E55E2E
:10027000FE4F90818F5F80930A01F1CFA093BC0065
:1002800080910A01882351F290911B0190930801FB
:10029000833020F29111C2CF853008F4BFCF109186
:1002A0001F0100E080911E01B801682BF0901D0134
:1002B000E12C20911C018091020190910301A70182
:1002C000422B9A01821793070CF49C01442755276F
:1002D000481B590B241735070CF49A01861797070A
:1002E0000CF4BC01CB01641775070CF4CA01F89437
:1002F00037FD3FC041E04093010197FD28C041E038
:100300004093000137FD28C030931A012093190152
:1003100097FD2BC0909312018093110178947ECFAA
:1003200080910A0190910901891708F08ACF909174
:10033000BB00E82FF0E0E55EFE4F90838F5F809377
:100340000A017FCFB093090110920A017ACF4FEFD3
:100350004093000137FFD8CF319521953109309373
:100360001A012093190197FFD5CF91958195910995
:10037000D1CF4FEFC0CF2FEF209301013BCFF999A1
:10038000FECF92BD81BDF89A992780B50895A8E166
:10039000B0E042E050E002C0DC01CB01FC01F99981
:1003A000FECF06C0F2BDE1BDF89A319600B40D92C1
:0C03B00041505040B8F70895F894FFCF7A
:0803BC00010100205000500077
:00000001FF
